:020000040800F2
:1000000000500020210D00086D0C0008750C000840
:100010007D0C0008850C00088D0C00080000000015
:10002000000000000000000000000000950C000827
:10003000A10C000800000000AD0C0008B90C00087D
:10004000690D0008690D0008690D0008690D0008B8
:10005000690D0008690D0008690D0008690D0008A8
:10006000690D0008690D0008690D0008690D000898
:10007000690D0008690D0008690D0008690D000888
:10008000C50C0008690D0008690D0008690D00081D
:10009000D90C0008690D0008690D0008690D0008F9
:1000A000690D0008690D0008690D0008690D000858
:1000B000690D0008ED0C0008690D0008690D0008C5
:1000C000690D0008690D0008690D0008690D000838
:1000D000690D0008690D0008010D0008690D000890
:1000E000690D0008690D0008690D00080000000096
:1000F0000000000000000000000000000000000000
:0C01000000000000000000005FF808F1A3
:10010C0010B5054C237833B9044B13B10448AFF345
:10011C0000800123237010BD0C00002000000000A3
:10012C008845000808B5034B1BB103490348AFF3DE
:10013C00008008BD00000000100000208845000869
:10014C0080B586B000AF0346FB710B46BB711346FE
:10015C007B71FB799AB2BB799BB213449AB27B79CF
:10016C009BB213449BB203F20513FB82FB8A5B42E6
:10017C00FB827E233B73FF237B730623BB73FB79CC
:10018C00FB7300233B74BB797B747B79BB74FB8A58
:10019C001B0A9BB2DBB2FB74FB8ADBB23B75EF2311
:1001AC007B7507F10C014FF0FF330A22034803F073
:1001BC00DDF900BF1837BD4680BD00BFA40000208C
:1001CC0080B582B000AF0346FB71022200213F20B4
:1001DC00FFF7B6FFC82000F025FEFB791A46002178
:1001EC000620FFF7ADFF4FF4FA7000F01BFE00BFC6
:1001FC000837BD4680BD80B582B000AF0346FB71A9
:10020C00FB791A4600210320FFF79AFFC82000F063
:10021C0009FE00BF0837BD4680BD000080B582B026
:10022C0000AF7860514B524A0021786801F026F8F3
:10023C000346002B01D001F0A2FC4D4B1B68392B5F
:10024C0003D04B4B1B683A2B20D1484B1B7803F047
:10025C004003002B10D0454B1B7803F00103DAB29E
:10026C00444B1A70414B1B785B08DBB203F0010363
:10027C00DAB2414B1A7009E03C4B1B78002B05D0CD
:10028C003C4B00221A703C4B00221A70384B1B68F6
:10029C0040F20152934217D1344B1B7803F0040304
:1002AC00002B5FD0314B9B78072B09D1334B0122AC
:1002BC001A70304B00221A702F4B00221A7051E02A
:1002CC002E4B00221A704DE0294B1B6840F2025253
:1002DC0093423AD1254B5B78472B2ED0472B41DCF0
:1002EC00202B02D0422B08D03CE0204B9B78472B94
:1002FC0033D1234B05221A702FE01C4B9B78312BEA
:10030C0003D11F4B01221A7029E0184B9B78322B1A
:10031C0003D11B4B02221A7021E0144B9B78332B18
:10032C0003D1174B03221A7019E0104B9B78342B16
:10033C0015D1134B04221A7011E00C4B9B78202B17
:10034C000FD10F4B05221A700BE0094B1B68082BC1
:10035C0008D10C4B01221A7004E000BF02E000BF70
:10036C0000E000BF00BF0837BD4680BD4C01002037
:10037C0030010020890100208A0100208801002022
:10038C00860100208701002080B582B000AF786024
:10039C000B467B807B681A680A4B1B689A420CD10F
:1003AC0032220949074803F06CF9084B1B681A689C
:1003BC00064B1B6822F004021A6000BF0837BD46CA
:1003CC0080BD00BFA400002054010020EC000020E0
:1003DC0080B582B000AF78607B681A68054B1B68EB
:1003EC009A4202D1044802F05DF800BF0837BD46BE
:1003FC0080BD00BF5C0000205000002080B500AF25
:10040C0000F0AEFC00F0ACF800F080FA00F060FAFE
:10041C0000F0EEF800F032FA00F0E2F900F0C6F964
:10042C00434802F0B1FC32224249434803F029F917
:10043C00424B1B681A68414B1B6822F004021A607D
:10044C001E20FFF7BDFE3E4B1B78002B0FD03D4B03
:10045C001B7883F00103DBB2002B0BD03A4B1B78DB
:10046C00184600F09FFA374B01221A7002E0354B08
:10047C0000221A70354B1B78012B1FD1344B1B7883
:10048C0083F00103DBB2002B1BD00120FFF7B3FE7E
:10049C0000BF284B9B79012BFBD10220FFF7ABFE51
:1004AC0000BF244B9B79022BFBD1274B1B781846A2
:1004BC0000F078FA264B01221A7002E0244B00223D
:1004CC001A70244B1B78012B2ED1234B1B7883F0F5
:1004DC000103DBB2002BB6D00320FFF78CFE00BF6C
:1004EC00144B9B79032BFBD10420FFF784FE00BF38
:1004FC00104B9B79042BFBD1184B1B78002B0FD086
:10050C000520FFF778FE00BF0A4B9B79052BFBD12A
:10051C000620FFF770FE00BF064B9B79062BFBD124
:10052C000D4B01221A708EE70B4B00221A708AE7D2
:10053C005C00002054010020A4000020EC000020EE
:10054C00880100208B0100208601002089010020F9
:10055C008C0100208A0100208D01002087010020E1
:10056C0080B590B000AF07F118032822002118467F
:10057C0003F0D8FF3B1D00221A605A609A60DA60C3
:10058C001A610923BB614FF48033FB614FF40033D4
:10059C003B620123BB6201233B6302237B634FF469
:1005AC008033BB634FF4E013FB6307F11803184669
:1005BC0001F088FF0346002B01D000F023FA0F2333
:1005CC007B600223BB600023FB604FF480633B61C4
:1005DC0000237B613B1D0221184602F0F5F903460E
:1005EC00002B01D000F00EFA00BF4037BD4680BD95
:1005FC0080B5B2B000AF6A4B6A4A1A60684B2822C9
:10060C005A60674B4FF000429A60654B0022DA60EB
:10061C00634B4FF460221A61614B4FF480125A61A4
:10062C005F4B00221A765E4B00225A765C4B0022FE
:10063C009A765B4B0022DA76594B00221A77584B8C
:10064C0000225A77564800F011FC0346002B01D0CB
:10065C0000F0D8F90123C7F8C0300023C7F8B43034
:10066C000023C7F8B0304AF22003C7F8A0300023AB
:10067C00C7F8A4304C4BC7F8A8300023C7F8AC30EF
:10068C000023C7F8B8300123C7F8BC300E23C7F8D5
:10069C00C4300123C7F898300123C7F88C300023ED
:1006AC00C7F888304AF24003BB670023FB673E4B18
:1006BC00C7F880300023C7F884300023C7F8903087
:1006CC000123C7F894300E23C7F89C3001233B67F5
:1006DC0002237B6600233B664FF480733B6500234B
:1006EC007B65314BBB650023FB650023BB66012397
:1006FC00FB660E237B670123BB640323FB63002390
:10070C00BB634FF4E463BB620023FB62264B3B6389
:10071C0000237B6300233B6401237B640E23FB6477
:10072C0001233B6204237B6100233B614FF4E863AC
:10073C003B6000237B601C4BBB600023FB600023F1
:10074C00BB610123FB610E237B6207F1A0031946F9
:10075C00134800F086FC07F178031946104800F0A6
:10076C0080FC07F1500319460D4800F07AFC07F1A4
:10077C00280319460A4800F074FC3B461946084801
:10078C0000F06FFC064800F071FB054800F032FDEC
:10079C000221034800F093FE00BFC837BD4680BD60
:1007AC002800002000640040E0FF010080B500AF8D
:1007BC00094B0A4A1A60084B04225A60064B40F651
:1007CC00FF729A60044801F029FE0346002B01D009
:1007DC0000F018F900BF80BD500000200030004030
:1007EC0080B586B000AF07F1080300221A605A608A
:1007FC009A60DA603B4600221A605A601D4B1E4A12
:10080C001A601C4B48F69F425A601A4B00229A60A1
:10081C00184B40F2E732DA60164B00221A61154B86
:10082C0000229A61134802F05FFA0346002B01D0B4
:10083C0000F0E8F84FF48053BB6007F10803194649
:10084C000C4802F0E3FB0346002B01D000F0DAF871
:10085C0000233B6000237B603B461946054802F0B1
:10086C00C5FD0346002B01D000F0CCF800BF1837B3
:10087C00BD4680BD5C0000200004004080B500AF88
:10088C00114B124A1A60104B4FF416525A600E4B11
:10089C0000229A600C4B0022DA600B4B00221A618A
:1008AC00094B0C225A61084B00229A61064B00221C
:1008BC00DA61054802F00AFE0346002B01D000F075
:1008CC00A1F800BF80BD00BFA40000200044004080
:1008DC0080B582B000AF0C4B5B690B4A43F001034F
:1008EC005361094B5B6903F001037B607B68002259
:1008FC000021102001F019F9102001F032F900BF8D
:10090C000837BD4680BD00BF0010024080B588B0DE
:10091C0000AF07F1100300221A605A609A60DA6087
:10092C001E4B9B691D4A43F0200393611B4B9B6933
:10093C0003F02003FB60FB68184B9B69174A43F0DC
:10094C0004039361154B9B6903F00403BB60BB6804
:10095C00124B9B69114A43F0080393610F4B9B693F
:10096C0003F008037B607B6800224FF480510C4835
:10097C0001F03CFD4FF480533B6101237B6100236C
:10098C00BB610223FB6107F110031946044801F017
:10099C00A9FB00BF2037BD4680BD00BF0010024040
:1009AC00000C014080B582B000AF0346FB71FB79AF
:1009BC00002B21D0FB795B00DBB20533DBB2184690
:1009CC00FFF719FC00BF0E4B9B791A46FB795B00B5
:1009DC0005339A42F7D1FB790333DBB25B00DBB210
:1009EC001846FFF708FC00BF054B9B791A46FB79AC
:1009FC0003335B009A42F7D100BF0837BD4680BD78
:100A0C005401002080B400AF72B600BF00BFFDE7F8
:100A1C0080B485B000AF154B9B69144A43F00103B9
:100A2C009361124B9B6903F00103BB60BB680F4BD6
:100A3C00DB690E4A43F08053D3610C4BDB6903F046
:100A4C0080537B607B680A4B5B68FB60FB6823F020
:100A5C00E063FB60FB6843F00073FB60044AFB68D7
:100A6C00536000BF1437BD4680BC70470010024075
:100A7C000000014080B588B000AF786007F110032A
:100A8C0000221A605A609A60DA607B681B68204A00
:100A9C00934239D11F4BDB691E4A43F00073D3617B
:100AAC001C4BDB6903F00073FB60FB68194B9B6903
:100ABC00184A43F004039361164B9B6903F004033B
:100ACC00BB60BB684FF400633B6100237B61002378
:100ADC00BB6107F1100319460F4801F003FB4FF4FB
:100AEC0080533B6102237B610323FB6107F11003FD
:100AFC001946094801F0F6FA00220121142001F0F0
:100B0C0014F8142001F02DF800BF2037BD4680BD2D
:100B1C0000640040001002400008014080B584B021
:100B2C0000AF78607B681B680D4A934213D10D4B64
:100B3C00DB690C4A43F00203D3610A4BDB6903F017
:100B4C000203FB60FB68002203211D2000F0EDFF77
:100B5C001D2001F006F800BF1037BD4680BD00BF58
:100B6C00000400400010024080B588B000AF7860EF
:100B7C0007F1100300221A605A609A60DA607B68F1
:100B8C001B68324A93425DD1314BDB69304A43F4E6
:100B9C000033D3612E4BDB6903F40033FB60FB683D
:100BAC002B4B9B692A4A43F004039361284B9B69A6
:100BBC0003F00403BB60BB6804233B6102237B612D
:100BCC000323FB6107F110031946224801F08AFA4E
:100BDC0008233B6100237B610023BB6107F11003F9
:100BEC0019461C4801F07EFA1B4B1C4A1A601A4B22
:100BFC0000225A60184B00229A60174B8022DA6050
:100C0C00154B00221A61144B00225A61124B002220
:100C1C009A61114B0022DA610F4800F0C1FF0346C4
:100C2C00002B01D0FFF7EEFE7B680B4ADA630A4A11
:100C3C007B68536200220221262000F076FF2620DA
:100C4C0000F08FFF00BF2037BD4680BD0044004040
:100C5C000010024000080140EC0000206C00024033
:100C6C0080B400AF00BFFDE780B400AF00BFFDE76C
:100C7C0080B400AF00BFFDE780B400AF00BFFDE75C
:100C8C0080B400AF00BFFDE780B400AF00BFBD462D
:100C9C0080BC704780B400AF00BFBD4680BC7047BD
:100CAC0080B400AF00BFBD4680BC704780B500AFBC
:100CBC0000F09CF800BF80BD80B500AF024801F089
:100CCC00DDF800BF80BD00BFEC00002080B500AF98
:100CDC00024800F019FC00BF80BD00BF28000020B6
:100CEC0080B500AF024802F0A1F800BF80BD00BF84
:100CFC005C00002080B500AF024802F01BFD00BF75
:100D0C0080BD00BFA400002080B400AF00BFBD4672
:100D1C0080BC7047FFF7F8FF0B480C490C4A0023C6
:100D2C0002E0D458C4500433C4188C42F9D3094A95
:100D3C00094C002301E013600432A242FBD303F000
:100D4C00F9FBFFF75BFB7047000000200C00002054
:100D5C00D44500080C00002094010020FEE70000A0
:100D6C0080B500AF084B1B68074A43F010031360B3
:100D7C00032000F0CFFE0F2000F008F8FFF748FE2C
:100D8C000023184680BD00BF0020024080B582B011
:100D9C0000AF7860124B1A68124B1B7819464FF44F
:100DAC007A73B3FBF1F3B2FBF3F3184600F0EBFEEE
:100DBC000346002B01D001230EE07B680F2B0AD8D1
:100DCC00002279684FF0FF3000F0AFFE064A7B68D6
:100DDC001360002300E0012318460837BD4680BD90
:100DEC0000000020080000200400002080B400AFA8
:100DFC00054B1B781A46054B1B681344034A1360BA
:100E0C0000BFBD4680BC7047080000209001002048
:100E1C0080B400AF024B1B681846BD4680BC7047BF
:100E2C009001002080B584B000AF7860FFF7F0FF30
:100E3C00B8607B68FB60FB68B3F1FF3F05D00A4BE1
:100E4C001B781A46FB681344FB6000BFFFF7E0FFFA
:100E5C000246BB68D31AFA689A42F7D800BF00BFA3
:100E6C001037BD4680BD00BF0800002080B584B09F
:100E7C0000AF78607B68002B01D10123EDE07B682B
:100E8C0093F82030DBB2002B02D17868FFF7F2FD2B
:100E9C007B681B681A687B681B6842F001021A6049
:100EAC00FFF7B6FFF86012E0FFF7B2FF0246FB68EF
:100EBC00D31A0A2B0BD97B685B6A43F400327B682C
:100ECC005A627B68052283F820200123C5E07B68E9
:100EDC001B685B6803F00103002BE5D07B681B6883
:100EEC001A687B681B6822F002021A60FFF790FFF9
:100EFC00F86012E0FFF78CFF0246FB68D31A0A2B4E
:100F0C000BD97B685B6A43F400327B685A627B685E
:100F1C00052283F8202001239FE07B681B685B6817
:100F2C0003F00203002BE5D17B681B7E012B08D15B
:100F3C007B681B681A687B681B6842F080021A6029
:100F4C0007E07B681B681A687B681B6822F08002CC
:100F5C001A607B685B7E012B08D17B681B681A6862
:100F6C007B681B6842F040021A6007E07B681B68D4
:100F7C001A687B681B6822F040021A607B689B7EB3
:100F8C00012B08D17B681B681A687B681B6842F0D0
:100F9C0020021A6007E07B681B681A687B681B6874
:100FAC0022F020021A607B68DB7E012B08D17B6863
:100FBC001B681A687B681B6822F010021A6007E035
:100FCC007B681B681A687B681B6842F010021A6009
:100FDC007B681B7F012B08D17B681B681A687B68B8
:100FEC001B6842F008021A6007E07B681B681A68ED
:100FFC007B681B6822F008021A607B685B7F012B00
:10100C0008D17B681B681A687B681B6842F0040275
:10101C001A6007E07B681B681A687B681B6822F003
:10102C0004021A607B689A687B68DB681A437B68E9
:10103C001B691A437B685B6942EA03017B685B6846
:10104C005A1E7B681B680A43DA617B6800225A626D
:10105C007B68012283F82020002318461037BD46F8
:10106C0080BD80B487B000AF786039607B681B6846
:10107C007B617B6893F82030FB74FB7C012B03D0E5
:10108C00FB7C022B40F0AA807B69D3F8003243F042
:10109C0001027B69C3F800223B685B6903F01F0304
:1010AC00012202FA03F3FB607B69D3F81C22FB6874
:1010BC00DB431A407B69C3F81C223B68DB69002BBD
:1010CC0023D17B69D3F80C22FB68DB431A407B6984
:1010DC00C3F80C223B68DB6819043B685B689BB265
:1010EC003A68526919437B69483243F832103B68BD
:1010FC009B6819043B681B689AB23B685B690A439E
:10110C0079694833DB000B445A603B68DB69012B7F
:10111C0022D17B69D3F80C22FB681A437B69C3F894
:10112C000C223B681B6819043B685B689BB23A68ED
:10113C00526919437B69483243F832103B689B680B
:10114C0019043B68DB689AB23B685B690A437969AE
:10115C004833DB000B445A603B689B69002B09D178
:10116C007B69D3F80422FB68DB431A407B69C3F824
:10117C00042207E07B69D3F80422FB681A437B69DD
:10118C00C3F804223B681B69002B09D17B69D3F897
:10119C001422FB68DB431A407B69C3F8142207E076
:1011AC007B69D3F81422FB681A437B69C3F81422B9
:1011BC003B681B6A012B07D17B69D3F81C22FB68A7
:1011CC001A437B69C3F81C227B69D3F8003223F0E5
:1011DC0001027B69C3F80022002306E07B685B6A8E
:1011EC0043F480227B685A62012318461C37BD46A3
:1011FC0080BC704780B584B000AF78607B6893F892
:10120C002030DBB2012B2ED17B68022283F8202008
:10121C007B681B681A687B681B6822F001021A60E5
:10122C00FFF7F6FDF86012E0FFF7F2FD0246FB68EF
:10123C00D31A0A2B0BD97B685B6A43F400327B68A8
:10124C005A627B68052283F82020012312E07B6818
:10125C001B685B6803F00103002BE5D17B6800225F
:10126C005A62002306E07B685B6A43F400227B68C9
:10127C005A62012318461037BD4680BD80B487B032
:10128C0000AFF860B9607A603B60FB6893F820307F
:10129C00FB75FB7D012B03D0FB7D022B40F0038102
:1012AC00BB68002B0ED1FB681B68DB6803F00303E3
:1012BC00002B16D1FB685B6A43F40012FB685A6280
:1012CC000123F7E0FB681B681B6903F00303002B89
:1012DC0007D1FB685B6A43F40012FB685A62012376
:1012EC00E8E0FB681A68BB681B331B0113441B68DE
:1012FC0003F004027B689A607B689B68002B0CD11E
:10130C00FB681A68BB681B331B0113441B685B0D1D
:10131C00C3F30A027B681A600BE0FB681A68BB68AF
:10132C001B331B0113441B68DB0823F060427B68F2
:10133C005A60FB681A68BB681B331B0113441B689B
:10134C0003F002027B68DA60FB681A68BB681B3327
:10135C001B01134404331B6803F00803002B03D058
:10136C007B6808221A610BE0FB681A68BB681B33A8
:10137C001B01134404331B6803F00F027B681A61D2
:10138C00FB681A68BB681B331B01134404331B68CE
:10139C001B0ADAB27B689A61FB681A68BB681B335C
:1013AC001B01134404331B681B0C9AB27B685A61F3
:1013BC00FB681A68BB681B01134403F5DC731B68DC
:1013CC00DAB23B681A70FB681A68BB681B011344DD
:1013DC0003F5DC731B681A0A3B680133D2B21A702E
:1013EC00FB681A68BB681B01134403F5DC731B68AC
:1013FC001A0C3B680233D2B21A70FB681A68BB68CD
:10140C001B01134403F5DC731B681A0E3B68033392
:10141C00D2B21A70FB681A68BB681B01134403F53F
:10142C00DE731A683B680433D2B21A70FB681A6810
:10143C00BB681B01134403F5DE731B681A0A3B6877
:10144C000533D2B21A70FB681A68BB681B011344CF
:10145C0003F5DE731B681A0C3B680633D2B21A70A4
:10146C00FB681A68BB681B01134403F5DE731B6829
:10147C001A0E3B680733D2B21A70BB68002B08D126
:10148C00FB681B68DA68FB681B6842F02002DA60B4
:10149C0007E0FB681B681A69FB681B6842F02002B6
:1014AC001A61002306E0FB685B6A43F48022FB6848
:1014BC005A62012318461C37BD4680BC704780B465
:1014CC0085B000AF786039607B6893F82030FB738F
:1014DC00FB7B012B02D0FB7B022B09D17B681B68A9
:1014EC0059697B681B683A680A435A61002306E015
:1014FC007B685B6A43F480227B685A62012318463E
:10150C001437BD4680BC704780B58AB000AF786098
:10151C0000237B627B681B685B693B627B681B6892
:10152C005B68FB617B681B689B68BB617B681B68A5
:10153C00DB687B617B681B681B693B617B681B6894
:10154C009B69FB603B6A03F00103002B7CD0BB69F9
:10155C0003F00103002B23D07B681B6801229A60E7
:10156C00BB6903F00203002B03D0786800F083F909
:10157C0016E0BB6903F00403002B04D07B6A43F430
:10158C0000637B620CE0BB6903F00803002B04D002
:10159C007B6A43F480537B6202E0786800F086F942
:1015AC00BB6903F48073002B24D07B681B684FF459
:1015BC0080729A60BB6903F40073002B03D07868C7
:1015CC0000F062F916E0BB6903F48063002B04D0D1
:1015DC007B6A43F400537B620CE0BB6903F4006349
:1015EC00002B04D07B6A43F480437B6202E0786872
:1015FC0000F065F9BB6903F48033002B24D07B68C1
:10160C001B684FF480329A60BB6903F40033002BE3
:10161C0003D0786800F041F916E0BB6903F480232D
:10162C00002B04D07B6A43F400437B620CE0BB6963
:10163C0003F40023002B04D07B6A43F480337B62D9
:10164C0002E0786800F044F93B6A03F00803002BD1
:10165C000CD07B6903F01003002B07D07B6A43F49A
:10166C0000737B627B681B681022DA603B6A03F0B4
:10167C000403002B0BD07B6903F00803002B06D06E
:10168C007B681B680822DA60786800F02AF93B6AEC
:10169C0003F00203002B09D07B681B68DB6803F0A6
:1016AC000303002B02D07868FEF7B8FD3B6A03F009
:1016BC004003002B0CD03B6903F01003002B07D028
:1016CC007B6A43F480637B627B681B6810221A611F
:1016DC003B6A03F02003002B0BD03B6903F008039B
:1016EC00002B06D07B681B6808221A61786800F012
:1016FC000AF93B6A03F01003002B09D07B681B68C6
:10170C001B6903F00303002B02D0786800F0F2F899
:10171C003B6A03F40033002B0BD0FB6903F010037E
:10172C00002B06D07B681B6810225A60786800F08A
:10173C00F3F83B6A03F48033002B0BD0FB6903F006
:10174C000803002B06D07B681B6808225A60786857
:10175C0000F0EBF83B6A03F40043002B7BD0FB69F1
:10176C0003F00403002B72D03B6A03F48073002B4C
:10177C0008D0FB6803F00103002B03D07B6A43F015
:10178C0001037B623B6A03F40073002B08D0FB68F7
:10179C0003F00203002B03D07B6A43F002037B624D
:1017AC003B6A03F48063002B08D0FB6803F004034E
:1017BC00002B03D07B6A43F004037B623B6A03F487
:1017CC000063002B43D0FB6803F07003002B3ED06A
:1017DC00FB6803F07003602B2BD0602B2ED8502BA2
:1017EC0022D0502B2AD8402B19D0402B26D8302B66
:1017FC0010D0302B22D8102B02D0202B05D01DE07E
:10180C007B6A43F008037B6219E07B6A43F01003A8
:10181C007B6214E07B6A43F020037B620FE07B6AFF
:10182C0043F040037B620AE07B6A43F080037B62F7
:10183C0005E07B6A43F480737B6200E000BF7B6849
:10184C001B689A697B681B6822F070029A617B683E
:10185C001B6804225A607B6A002B08D07B685A6A8A
:10186C007B6A1A437B685A62786800F067F800BF9D
:10187C002837BD4680BD80B483B000AF786000BF10
:10188C000C37BD4680BC704780B483B000AF786025
:10189C0000BF0C37BD4680BC704780B483B000AF2E
:1018AC00786000BF0C37BD4680BC704780B483B0F5
:1018BC0000AF786000BF0C37BD4680BC704780B469
:1018CC0083B000AF786000BF0C37BD4680BC70475A
:1018DC0080B483B000AF786000BF0C37BD4680BCCD
:1018EC00704780B483B000AF786000BF0C37BD4642
:1018FC0080BC704780B483B000AF786000BF0C37F9
:10190C00BD4680BC704780B483B000AF786000BF28
:10191C000C37BD4680BC704780B483B000AF786094
:10192C0000BF0C37BD4680BC704780B483B000AF9D
:10193C00786000BF0C37BD4680BC704780B483B064
:10194C0000AF786000BF0C37BD4680BC704700000C
:10195C0080B485B000AF78607B6803F00703FB6050
:10196C000C4BDB68BB60BA684FF6FF031340BB60DF
:10197C00FB681A02BB68134343F0BF6343F40033A4
:10198C00BB60044ABB68D36000BF1437BD4680BC43
:10199C00704700BF00ED00E080B400AF044BDB6883
:1019AC001B0A03F007031846BD4680BC704700BFF6
:1019BC0000ED00E080B483B000AF0346FB7197F9F3
:1019CC000730002B0BDBFB7903F01F02064997F95C
:1019DC0007305B09012000FA02F241F8232000BF16
:1019EC000C37BD4680BC704700E100E080B483B08A
:1019FC0000AF03463960FB7197F90730002B0ADB07
:101A0C003B68DAB20C4997F907301201D2B20B4499
:101A1C0083F800230AE03B68DAB20849FB7903F04B
:101A2C000F03043B1201D2B20B441A7600BF0C37E1
:101A3C00BD4680BC704700BF00E100E000ED00E057
:101A4C0080B489B000AFF860B9607A60FB6803F0CD
:101A5C000703FB61FB69C3F10703042B28BF0423B5
:101A6C00BB61FB690433062B02D9FB69033B00E025
:101A7C0000237B614FF0FF32BB6902FA03F3DA43B8
:101A8C00BB681A407B699A404FF0FF317B6901FAC1
:101A9C0003F3D9437B680B40134318462437BD46E8
:101AAC0080BC704780B400AFBFF34F8F00BF064BB4
:101ABC00DB6803F4E0620449044B1343CB60BFF3CF
:101ACC004F8F00BF00BFFDE700ED00E00400FA05FA
:101ADC0080B582B000AF78607B68013BB3F1807F4A
:101AEC0001D301230FE00A4A7B68013B53600F21AD
:101AFC004FF0FF30FFF77AFF054B00229A60044B42
:101B0C0007221A60002318460837BD4680BD00BF67
:101B1C0010E000E080B582B000AF78607868FFF725
:101B2C0017FF00BF0837BD4680BD80B586B000AF3B
:101B3C000346B9607A60FB7300237B61FFF72CFFCF
:101B4C0078617A68B9687869FFF77AFF024697F985
:101B5C000F3011461846FFF749FF00BF1837BD4636
:101B6C0080BD80B582B000AF0346FB7197F907309A
:101B7C001846FFF71FFF00BF0837BD4680BD80B574
:101B8C0000AFFFF78FFF80B582B000AF7860786848
:101B9C00FFF79EFF034618460837BD4680BD000080
:101BAC0080B485B000AF78600023FB607B68002BAD
:101BBC0001D1012343E07B681B681A46224B134476
:101BCC00224AA2FB03231B099A007B681A647B68D8
:101BDC001F4ADA637B68022283F821207B681B682A
:101BEC001B68FB60FB6823F47F5323F03003FB601E
:101BFC007B685A687B689B681A437B68DB681A436E
:101C0C007B681B691A437B685B691A437B689B6919
:101C1C001A437B68DB691343FA681343FB607B68E8
:101C2C001B68FA681A607B6800229A637B68012241
:101C3C0083F821207B68002283F82020002318469B
:101C4C001437BD4680BC7047F8FFFDBFCDCCCCCC63
:101C5C000000024080B586B000AFF860B9607A60D1
:101C6C003B600023FB75FB6893F82030012B01D1FE
:101C7C0002234BE0FB68012283F82020FB6893F8D9
:101C8C002130DBB2012B3AD1FB68022283F82120F0
:101C9C00FB6800229A63FB681B681A68FB681B6868
:101CAC0022F001021A603B687A68B968F86800F0A3
:101CBC00EBF9FB68DB6A002B08D0FB681B681A6821
:101CCC00FB681B6842F00E021A600FE0FB681B6891
:101CDC001A68FB681B6822F004021A60FB681B6818
:101CEC001A68FB681B6842F00A021A60FB681B68E2
:101CFC001A68FB681B6842F001021A6005E0FB6879
:101D0C00002283F820200223FB75FB7D1846183730
:101D1C00BD4680BD80B485B000AF78600023FB73F6
:101D2C007B6893F82130DBB2022B08D07B6804224D
:101D3C009A637B68002283F82020012320E07B68D3
:101D4C001B681A687B681B6822F00E021A607B689D
:101D5C001B681A687B681B6822F001021A607B689A
:101D6C001A6C7B68DB6B012101FA02F25A607B680A
:101D7C00012283F821207B68002283F82020FB7B42
:101D8C0018461437BD4680BC7047000080B584B03F
:101D9C0000AF78600023FB737B6893F82130DBB2D3
:101DAC00022B05D07B6804229A630123FB7351E05C
:101DBC007B681B681A687B681B6822F00E021A602D
:101DCC007B681B681A687B681B6822F001021A602A
:101DDC007B681B68224A934229D07B681B68214A86
:101DEC00934222D07B681B681F4A93421AD07B68AF
:101DFC001B681E4A934212D07B681B681C4A934294
:101E0C000AD07B681B681B4A934202D14FF48013A3
:101E1C000EE04FF080730BE04FF4803308E04FF48A
:101E2C00805305E04FF4807302E0102300E001239F
:101E3C00114A53607B68012283F821207B680022C1
:101E4C0083F820207B685B6B002B03D07B685B6B7B
:101E5C0078689847FB7B18461037BD4680BD00BF9D
:101E6C00080002401C0002403000024044000240C6
:101E7C00580002406C0002400000024080B584B063
:101E8C0000AF78607B68DB6B1B68FB607B681B6852
:101E9C001B68BB607B681B6C04229A40FB68134078
:101EAC00002B4FD0BB6803F00403002B4AD07B6897
:101EBC001B681B6803F02003002B07D17B681B6891
:101ECC001A687B681B6822F004021A607B681B6826
:101EDC00664A934229D07B681B68654A934222D09C
:101EEC007B681B68634A93421AD07B681B68624A02
:101EFC00934212D07B681B68604A93420AD07B687D
:101F0C001B685F4A934202D14FF480030EE04FF0FE
:101F1C0080630BE04FF4802308E04FF4804305E02E
:101F2C004FF4806302E0402300E00423554A5360E1
:101F3C007B68DB6A002B00F094807B68DB6A786836
:101F4C0098478EE07B681B6C02229A40FB6813401A
:101F5C00002B56D0BB6803F00203002B51D07B68DA
:101F6C001B681B6803F02003002B0BD17B681B68DC
:101F7C001A687B681B6822F00A021A607B680122CF
:101F8C0083F821207B681B68384A934229D07B68F0
:101F9C001B68374A934222D07B681B68354A9342B0
:101FAC001AD07B681B68344A934212D07B681B683A
:101FBC00324A93420AD07B681B68314A934202D161
:101FCC004FF400130EE04FF000730BE04FF40033AE
:101FDC0008E04FF4005305E04FF4007302E02023B7
:101FEC0000E00223274A53607B68002283F82020FC
:101FFC007B689B6A002B34D07B689B6A7868984717
:10200C002FE07B681B6C08229A40FB681340002B66
:10201C0028D0BB6803F00803002B23D07B681B6817
:10202C001A687B681B6822F00E021A607B681A6CB7
:10203C007B68DB6B012101FA02F25A607B6801229A
:10204C009A637B68012283F821207B68002283F845
:10205C0020207B681B6B002B04D07B681B6B786883
:10206C00984700BF00BF1037BD4680BD0800024036
:10207C001C00024030000240440002405800024064
:10208C006C0002400000024080B485B000AFF860E4
:10209C00B9607A603B60FB681A6CFB68DB6B0121F2
:1020AC0001FA02F25A60FB681B683A685A60FB68D6
:1020BC005B68102B08D1FB681B687A689A60FB6818
:1020CC001B68BA68DA6007E0FB681B68BA689A603C
:1020DC00FB681B687A68DA6000BF1437BD4680BCA9
:1020EC007047000080B48BB000AF7860396000237B
:1020FC007B6200233B6269E101227B6A02FA03F3F3
:10210C00FB613B681B68FA691340BB61BA69FB69E8
:10211C009A4240F058813B685B689A4A93425ED081
:10212C00984A934275D8984A934258D0964A93420B
:10213C006FD8964A934252D0944A934269D8944AA3
:10214C0093424CD0924A934263D8924A934246D0DF
:10215C00904A93425DD8122B2AD8122B59D801A23F
:10216C0052F823F0EB210008C5210008D721000804
:10217C00192200081F2200081F2200081F22000835
:10218C001F2200081F2200081F2200081F2200081F
:10219C001F2200081F2200081F2200081F2200080F
:1021AC001F2200081F220008CD210008E121000891
:1021BC00794A934213D02CE03B68DB683B6229E000
:1021CC003B68DB6804333B6224E03B68DB68083324
:1021DC003B621FE03B68DB680C333B621AE03B68F8
:1021EC009B68002B02D104233B6213E03B689B6885
:1021FC00012B05D108233B627B68FA691A6109E05F
:10220C0008233B627B68FA695A6103E000233B6256
:10221C0000E000BFBB69FF2B01D87B6801E07B6845
:10222C0004337B61BB69FF2B02D87B6A9B0002E005
:10223C007B6A083B9B003B617B691A680F213B69F9
:10224C0001FA03F3DB431A40396A3B6901FA03F3E1
:10225C001A437B691A603B685B6803F08053002B60
:10226C0000F0B1804D4B9B694C4A43F001039361E4
:10227C004A4B9B6903F00103BB60BB68484A7B6A0D
:10228C009B08023352F82330FB607B6A03F0030394
:10229C009B000F2202FA03F3DB43FA681340FB6046
:1022AC007B68404A934213D07B683F4A93420DD0DF
:1022BC007B683E4A934207D07B683D4A934201D1EA
:1022CC00032306E0042304E0022302E0012300E0E0
:1022DC0000237A6A02F0030292009340FA681343D7
:1022EC00FB602F497B6A9B080233FA6841F8232074
:1022FC003B685B6803F48013002B06D02D4B9A6867
:10230C002C49BB6913438B6006E02A4B9A68BB6966
:10231C00DB43284913408B603B685B6803F4001374
:10232C00002B06D0234BDA682249BB691343CB60E0
:10233C0006E0204BDA68BB69DB431E491340CB60D7
:10234C003B685B6803F40033002B06D0194B5A68CA
:10235C001849BB6913434B6006E0164B5A68BB69BE
:10236C00DB43144913404B603B685B6803F48033D8
:10237C00002B21D00F4B1A680E49BB6913430B601D
:10238C0021E000BF000032100000311000002210CC
:10239C00000021100000121000001110001002406B
:1023AC000000014000080140000C014000100140F9
:1023BC0000140140000401400B4B1A68BB69DB435D
:1023CC00094913400B607B6A01337B623B681A68D6
:1023DC007B6A22FA03F3002B7FF48EAE00BF00BFA2
:1023EC002C37BD4680BC70470004014080B483B0DC
:1023FC0000AF78600B467B8013467B707B78002B9C
:10240C0003D07A887B681A6103E07B881A047B68A6
:10241C001A6100BF0C37BD4680BC704780B584B0D4
:10242C0000AF78607B68002B01D1012336E07B681C
:10243C001B684CF6CC421A607B681B6845F25552FF
:10244C001A607B681B687A6852685A607B681B68E4
:10245C007A6892689A60FEF7DBFCF86011E0FEF790
:10246C00D7FC0246FB68D31A41F23C32934208D99E
:10247C007B681B68DB6803F00303002B01D003238C
:10248C000CE07B681B68DB6803F00303002BE6D1D0
:10249C007B681B684AF6AA221A600023184610377C
:1024AC00BD4680BD80B483B000AF78607B681B688C
:1024BC004AF6AA221A60002318460C37BD4680BC87
:1024CC007047000080B586B000AF78607B68002B49
:1024DC0001D1012372E27B681B6803F00103002B1E
:1024EC0000F08780924B5B6803F00C03042B0CD03C
:1024FC008F4B5B6803F00C03082B12D18C4B5B6881
:10250C0003F48033B3F5803F0BD1894B1B6803F484
:10251C000033002B6CD07B685B68002B68D10123E7
:10252C004CE27B685B68B3F5803F06D1804B1B683F
:10253C007F4A43F4803313602EE07B685B68002B8A
:10254C000CD17B4B1B687A4A23F480331360784B95
:10255C001B68774A23F4802313601DE07B685B685B
:10256C00B3F5A02F0CD1724B1B68714A43F4802336
:10257C0013606F4B1B686E4A43F4803313600BE09F
:10258C006B4B1B686A4A23F480331360684B1B68DF
:10259C00674A23F4802313607B685B68002B13D09D
:1025AC00FEF736FC386108E0FEF732FC02463B6968
:1025BC00D31A642B01D9032300E25D4B1B6803F48F
:1025CC000033002BF0D014E0FEF722FC386108E059
:1025DC00FEF71EFC02463B69D31A642B01D9032378
:1025EC00ECE1534B1B6803F40033002BF0D100E0FB
:1025FC0000BF7B681B6803F00203002B63D04C4BBD
:10260C005B6803F00C03002B0BD0494B5B6803F0A9
:10261C000C03082B1CD1464B5B6803F48033002B56
:10262C0016D1434B1B6803F00203002B05D07B68CB
:10263C001B69012B01D00123C0E13D4B1B6823F02A
:10264C00F8027B685B69DB00394913430B603AE0A5
:10265C007B681B69002B20D0364B01221A60FEF7D9
:10266C00D7FB386108E0FEF7D3FB02463B69D31A6F
:10267C00022B01D90323A1E12D4B1B6803F00203AC
:10268C00002BF0D02A4B1B6823F0F8027B685B69A7
:10269C00DB00274913430B6015E0264B00221A6020
:1026AC00FEF7B6FB386108E0FEF7B2FB02463B6969
:1026BC00D31A022B01D9032380E11D4B1B6803F0B5
:1026CC000203002BF0D17B681B6803F00803002B7E
:1026DC003AD07B689B69002B19D0174B01221A60EA
:1026EC00FEF796FB386108E0FEF792FB02463B6969
:1026FC00D31A022B01D9032360E10D4B5B6A03F063
:10270C000203002BF0D0012000F0D0FA1CE00A4BA1
:10271C0000221A60FEF77CFB38610FE0FEF778FBB5
:10272C0002463B69D31A022B08D9032346E100BFAA
:10273C00001002400000424280044242924B5B6A0D
:10274C0003F00203002BE9D17B681B6803F0040340
:10275C00002B00F0A6800023FB758B4BDB6903F08C
:10276C008053002B0DD1884BDB69874A43F0805393
:10277C00D361854BDB6903F08053BB60BB680123DD
:10278C00FB75824B1B6803F48073002B18D17F4BB5
:10279C001B687E4A43F480731360FEF739FB386183
:1027AC0008E0FEF735FB02463B69D31A642B01D9CE
:1027BC00032303E1754B1B6803F48073002BF0D0EB
:1027CC007B68DB68012B06D16F4B1B6A6E4A43F0AA
:1027DC00010313622DE07B68DB68002B0CD16A4B84
:1027EC001B6A694A23F001031362674B1B6A664A32
:1027FC0023F0040313621CE07B68DB68052B0CD10F
:10280C00614B1B6A604A43F0040313625E4B1B6A04
:10281C005D4A43F0010313620BE05B4B1B6A5A4A9F
:10282C0023F001031362584B1B6A574A23F004032D
:10283C0013627B68DB68002B15D0FEF7E9FA386170
:10284C000AE0FEF7E5FA02463B69D31A41F28832F8
:10285C00934201D90323B1E04B4B1B6A03F00203F3
:10286C00002BEED014E0FEF7D3FA38610AE0FEF745
:10287C00CFFA02463B69D31A41F28832934201D90E
:10288C0003239BE0404B1B6A03F00203002BEED1A9
:10289C00FB7D012B05D13C4BDB693B4A23F080537C
:1028AC00D3617B68DB69002B00F08780364B5B685B
:1028BC0003F00C03082B61D07B68DB69022B46D13B
:1028CC00334B00221A60FEF7A3FA386108E0FEF7DA
:1028DC009FFA02463B69D31A022B01D903236DE000
:1028EC00294B1B6803F00073002BF0D17B681B6A2B
:1028FC00B3F5803F08D1244B5B6823F400327B682E
:10290C009B68214913434B601F4B5B6823F4741283
:10291C007B68196A7B685B6A0B431B4913434B60EA
:10292C001B4B01221A60FEF773FA386108E0FEF7C0
:10293C006FFA02463B69D31A022B01D903233DE0FF
:10294C00114B1B6803F00073002BF0D035E0104BDB
:10295C0000221A60FEF75CFA386108E0FEF758FABC
:10296C0002463B69D31A022B01D9032326E0064BFE
:10297C001B6803F00073002BF0D11EE07B68DB6951
:10298C00012B07D1012319E0001002400070004018
:10299C00600042420B4B5B68FB60FB6803F48032C7
:1029AC007B681B6A9A4206D1FB6803F470127B6841
:1029BC005B6A9A4201D0012300E0002318461837C5
:1029CC00BD4680BD0010024080B584B000AF786079
:1029DC0039607B68002B01D10123D0E06A4B1B6866
:1029EC0003F007033A689A4210D9674B1B6823F02F
:1029FC00070265493B6813430B60634B1B6803F08C
:102A0C0007033A689A4201D00123B8E07B681B683F
:102A1C0003F00203002B20D07B681B6803F0040337
:102A2C00002B05D0594B5B68584A43F4E063536064
:102A3C007B681B6803F00803002B05D0534B5B68C5
:102A4C00524A43F460535360504B5B6823F0F002DE
:102A5C007B689B684D4913434B607B681B6803F094
:102A6C000103002B40D07B685B68012B07D1474BDF
:102A7C001B6803F40033002B15D101237FE07B6826
:102A8C005B68022B07D1414B1B6803F00073002BD2
:102A9C0009D1012373E03D4B1B6803F00203002BAB
:102AAC0001D101236BE0394B5B6823F003027B6897
:102ABC005B68364913434B60FEF7AAF9F8600AE0ED
:102ACC00FEF7A6F90246FB68D31A41F2883293420C
:102ADC0001D9032353E02D4B5B6803F00C027B6898
:102AEC005B689B009A42EBD1274B1B6803F00703F2
:102AFC003A689A4210D2244B1B6823F007022249F1
:102B0C003B6813430B60204B1B6803F007033A68C8
:102B1C009A4201D0012332E07B681B6803F0040366
:102B2C00002B08D0194B5B6823F4E0627B68DB68F0
:102B3C00164913434B607B681B6803F00803002B9A
:102B4C0009D0124B5B6823F460527B681B69DB0075
:102B5C000E4913434B6000F021F802460B4B5B68A7
:102B6C001B0903F00F030A49CB5C22FA03F3094A51
:102B7C001360094B1B681846FEF708F9002318462A
:102B8C001037BD4680BD00BF00200240001002403F
:102B9C00A0450008000000200400002080B487B08D
:102BAC0000AF0023FB600023BB6000237B6100238C
:102BBC007B6000233B611E4B5B68FB60FB6803F092
:102BCC000C03042B02D0082B03D027E0194B3B61DC
:102BDC0027E0FB689B0C03F00F03174AD35C7B6068
:102BEC00FB6803F48033002B10D0114B5B685B0C3B
:102BFC0003F00103114AD35CBB607B680D4A03FBF5
:102C0C0002F2BB68B2FBF3F37B6104E07B680C4A15
:102C1C0002FB03F37B617B693B6102E0094B3B6187
:102C2C0000BF3B6918461C37BD4680BC704700BFCF
:102C3C00001002400024F400B8450008C845000804
:102C4C0000093D0000127A0080B400AF024B1B68F3
:102C5C001846BD4680BC70470000002080B500AF10
:102C6C00FFF7F2FF0246054B5B681B0A03F00703F4
:102C7C000349CB5C22FA03F3184680BD00100240D6
:102C8C00B045000880B500AFFFF7DEFF0246054BEC
:102C9C005B68DB0A03F007030349CB5C22FA03F3FE
:102CAC00184680BD00100240B045000880B485B0C5
:102CBC0000AF78600A4B1B680A4AA2FB03235B0A2D
:102CCC007A6802FB03F3FB6000BFFB685A1EFA60D4
:102CDC00002BF9D100BF00BF1437BD4680BC704734
:102CEC0000000020D34D621080B582B000AF786038
:102CFC007B68002B01D1012341E07B6893F83D30C8
:102D0C00DBB2002B06D17B68002283F83C2078686C
:102D1C00FDF704FF7B68022283F83D207B681A686C
:102D2C007B6804331946104600F05CFA7B6801227C
:102D3C0083F846207B68012283F83E207B680122C1
:102D4C0083F83F207B68012283F840207B680122B6
:102D5C0083F841207B68012283F842207B680122A2
:102D6C0083F843207B68012283F844207B6801228E
:102D7C0083F845207B68012283F83D200023184608
:102D8C000837BD4680BD000080B485B000AF7860C8
:102D9C007B6893F83D30DBB2012B01D001233AE084
:102DAC007B68022283F83D207B681B68DA687B68AD
:102DBC001B6842F00102DA607B681B68184A934278
:102DCC000ED07B681B68B3F1804F09D07B681B6801
:102DDC00144A934204D07B681B68134A934211D166
:102DEC007B681B689B6803F00703FB60FB68062B82
:102DFC0010D07B681B681A687B681B6842F0010264
:102E0C001A6007E07B681B681A687B681B6842F0D5
:102E1C0001021A60002318461437BD4680BC704767
:102E2C00002C0140000400400008004080B584B034
:102E3C0000AF78607B681B68DB68FB607B681B6895
:102E4C001B69BB60BB6803F00203002B20D0FB683E
:102E5C0003F00203002B1BD07B681B686FF002028F
:102E6C001A617B6801221A777B681B689B6903F0E7
:102E7C000303002B03D0786800F098F905E078681C
:102E8C0000F08BF9786800F09AF97B6800221A77C9
:102E9C00BB6803F00403002B20D0FB6803F0040391
:102EAC00002B1BD07B681B686FF004021A617B68D7
:102EBC0002221A777B681B689B6903F44073002B12
:102ECC0003D0786800F072F905E0786800F065F9D5
:102EDC00786800F074F97B6800221A77BB6803F0FD
:102EEC000803002B20D0FB6803F00803002B1BD039
:102EFC007B681B686FF008021A617B6804221A77E2
:102F0C007B681B68DB6903F00303002B03D0786834
:102F1C0000F04CF905E0786800F03FF9786800F0B3
:102F2C004EF97B6800221A77BB6803F01003002B64
:102F3C0020D0FB6803F01003002B1BD07B681B68B0
:102F4C006FF010021A617B6808221A777B681B6885
:102F5C00DB6903F44073002B03D0786800F026F98A
:102F6C0005E0786800F019F9786800F028F97B68BA
:102F7C0000221A77BB6803F00103002B0CD0FB680E
:102F8C0003F00103002B07D07B681B686FF0010274
:102F9C001A617868FDF71CFABB6803F08003002BFC
:102FAC000CD0FB6803F08003002B07D07B681B68F8
:102FBC006FF080021A61786800F07FFABB6803F04A
:102FCC004003002B0CD0FB6803F04003002B07D010
:102FDC007B681B686FF040021A61786800F0F8F8A3
:102FEC00BB6803F02003002B0CD0FB6803F020031C
:102FFC00002B07D07B681B686FF020021A61786881
:10300C0000F052FA00BF1037BD4680BD80B584B0C9
:10301C0000AF786039600023FB737B6893F83C3019
:10302C00012B01D10223B4E07B68012283F83C2000
:10303C007B68022283F83D207B681B689B68BB6021
:10304C00BB6823F07703BB60BB6823F47F43BB6092
:10305C007B681B68BA689A603B681B68B3F5005FB5
:10306C003ED0B3F5005F00F28780B3F5805F00F0CF
:10307C008680B3F5805F7FD8702B1AD0702B7BD8ED
:10308C00602B50D0602B77D8502B3CD0502B73D862
:10309C00402B58D0402B6FD8302B64D0302B6BD8B2
:1030AC00202B60D0202B67D8002B5CD0102B5AD053
:1030BC0062E07B6818683B6899683B685A683B68B3
:1030CC00DB6800F074F97B681B689B68BB60BB68AD
:1030DC0043F07703BB607B681B68BA689A604FE06B
:1030EC007B6818683B6899683B685A683B68DB6882
:1030FC0000F05DF97B681B689A687B681B6842F47A
:10310C0080429A603CE07B6818683B6859683B6871
:10311C00DB681A4600F0D4F87B681B68502118460F
:10312C0000F02BF92CE07B6818683B6859683B6809
:10313C00DB681A4600F0F2F87B681B6860211846C1
:10314C0000F01BF91CE07B6818683B6859683B6809
:10315C00DB681A4600F0B4F87B681B6840211846FF
:10316C0000F00BF90CE07B681A683B681B68194689
:10317C00104600F002F903E00123FB7300E000BFEE
:10318C007B68012283F83D207B68002283F83C2079
:10319C00FB7B18461037BD4680BD80B483B000AFB2
:1031AC00786000BF0C37BD4680BC704780B483B0DC
:1031BC0000AF786000BF0C37BD4680BC704780B450
:1031CC0083B000AF786000BF0C37BD4680BC704741
:1031DC0080B483B000AF786000BF0C37BD4680BCB4
:1031EC007047000080B485B000AF786039607B68B0
:1031FC001B68FB607B682F4A93420BD07B68B3F152
:10320C00804F07D07B682C4A934203D07B682B4AB3
:10321C00934208D1FB6823F07003FB603B685B684A
:10322C00FA681343FB607B68224A93420BD07B689D
:10323C00B3F1804F07D07B681F4A934203D07B6861
:10324C001E4A934208D1FB6823F44073FB603B6831
:10325C00DB68FA681343FB60FB6823F080023B6871
:10326C005B691343FB607B68FA681A603B689A6879
:10327C007B68DA623B681A687B689A627B680D4AE5
:10328C00934203D13B681A697B681A637B680122FD
:10329C005A617B681B6903F00103002B05D07B6826
:1032AC001B6923F001027B681A6100BF1437BD460D
:1032BC0080BC7047002C0140000400400008004016
:1032CC0080B487B000AFF860B9607A60FB681B6AA5
:1032DC007B61FB681B6A23F00102FB681A62FB68C6
:1032EC009B693B613B6923F0F0033B617B681B01ED
:1032FC003A6913433B617B6923F00A037B617A696A
:10330C00BB6813437B61FB683A699A61FB687A6915
:10331C001A6200BF1C37BD4680BC704780B487B0B2
:10332C0000AFF860B9607A60FB681B6A7B61FB6870
:10333C001B6A23F01002FB681A62FB689B693B61F5
:10334C003B6923F470433B617B681B033A6913436D
:10335C003B617B6923F0A0037B61BB681B017A692D
:10336C0013437B61FB683A699A61FB687A691A625C
:10337C0000BF1C37BD4680BC704780B485B000AF21
:10338C00786039607B689B68FB60FB6823F0700396
:10339C00FB603A68FB68134343F00703FB607B68F0
:1033AC00FA689A6000BF1437BD4680BC704780B481
:1033BC0087B000AFF860B9607A603B60FB689B68CF
:1033CC007B617B6923F47F437B613B681A027B68DA
:1033DC001A43BB6813437A6913437B61FB687A69B0
:1033EC009A6000BF1C37BD4680BC704780B485B066
:1033FC0000AF786039607B6893F83C30012B01D1C9
:10340C00022346E07B68012283F83C207B68022281
:10341C0083F83D207B681B685B68FB607B681B68DE
:10342C009B68BB60FB6823F07003FB603B681B6808
:10343C00FA681343FB607B681B68FA685A607B6808
:10344C001B68164A93420ED07B681B68B3F1804F01
:10345C0009D07B681B68124A934204D07B681B68B6
:10346C00104A93420CD1BB6823F08003BB603B68CD
:10347C005B68BA681343BB607B681B68BA689A6068
:10348C007B68012283F83D207B68002283F83C2076
:10349C00002318461437BD4680BC7047002C0140F1
:1034AC00000400400008004080B483B000AF786096
:1034BC0000BF0C37BD4680BC704780B483B000AFF2
:1034CC00786000BF0C37BD4680BC704780B582B0B9
:1034DC0000AF78607B68002B01D1012342E07B6850
:1034EC0093F84130DBB2002B06D17B68002283F8C5
:1034FC0040207868FDF738FB7B68242283F8412054
:10350C007B681B68DA687B681B6822F40052DA60FF
:10351C00786800F079FF7B681B681A697B681B6808
:10352C0022F490421A617B681B685A697B681B689D
:10353C0022F02A025A617B681B68DA687B681B6878
:10354C0042F40052DA607B6800225A647B682022C5
:10355C0083F841207B68202283F842207B6800227C
:10356C005A63002318460837BD4680BD80B58AB023
:10357C0002AFF860B9603B601346FB8000237B61AF
:10358C00FB6893F84130DBB2202B75D1BB68002B64
:10359C0002D0FB88002B01D101236EE0FB680022D6
:1035AC005A64FB68212283F84120FDF731FC7861D5
:1035BC00FB68FA889A84FB68FA88DA84FB689B6853
:1035CC00B3F5805F08D1FB681B69002B04D1002385
:1035DC00FB61BB68BB6103E0BB68FB610023BB61A3
:1035EC002EE03B6800937B6900228021F86800F094
:1035FC0055FC0346002B05D0FB68202283F84120A4
:10360C0003233AE0FB69002B0BD1BB691B881A46DC
:10361C00FB681B68C2F308025A60BB690233BB61CA
:10362C0007E0FB691A78FB681B685A60FB69013379
:10363C00FB61FB68DB8C9BB2013B9AB2FB68DA84C2
:10364C00FB68DB8C9BB2002BCBD13B6800937B6976
:10365C0000224021F86800F021FC0346002B05D025
:10366C00FB68202283F84120032306E0FB6820221C
:10367C0083F84120002300E0022318462037BD4682
:10368C0080BD80B58CB000AFF860B9601346FB808C
:10369C00FB6893F84230DBB2202B46D1BB68002B81
:1036AC0002D0FB88002B01D101233FE0FB680122F3
:1036BC001A63FB6800225A63FB881A46B968F868DB
:1036CC0000F046FC034687F82F30FB681B6B012B80
:1036DC0025D100233B61FB681B681B683B61FB68C1
:1036EC001B685B683B613B69FB681B680C33BB6107
:1036FC00BB6953E8003F7B617B6943F01003BB62FD
:10370C00FB681B680C33BA6A7A623B62396A7A6A64
:10371C0041E80023FB61FB69002BE5D102E00123AA
:10372C0087F82F3097F82F3000E0022318463037F7
:10373C00BD4680BD80B5BAB000AF78607B681B68B1
:10374C001B68C7F8E4307B681B68DB68C7F8E0309F
:10375C007B681B685B69C7F8DC300023C7F8D8307E
:10376C000023C7F8D430D7F8E43003F00F03C7F8C0
:10377C00D830D7F8D830002B0FD1D7F8E43003F07D
:10378C002003002B09D0D7F8E03003F02003002BE6
:10379C0003D0786800F07AFD5BE2D7F8D830002BC4
:1037AC0000F0DE80D7F8DC3003F00103002B06D1EB
:1037BC00D7F8E03003F49073002B00F0D180D7F8E9
:1037CC00E43003F00103002B0BD0D7F8E03003F406
:1037DC008073002B05D07B685B6C43F001027B6827
:1037EC005A64D7F8E43003F00403002B0BD0D7F85D
:1037FC00DC3003F00103002B05D07B685B6C43F0DD
:10380C0002027B685A64D7F8E43003F00203002B01
:10381C000BD0D7F8DC3003F00103002B05D07B680C
:10382C005B6C43F004027B685A64D7F8E43003F015
:10383C000803002B11D0D7F8E03003F02003002B45
:10384C0005D1D7F8DC3003F00103002B05D07B68E1
:10385C005B6C43F008027B685A647B685B6C002BE2
:10386C0000F0F281D7F8E43003F02003002B08D0ED
:10387C00D7F8E03003F02003002B02D0786800F07A
:10388C0005FD7B681B685B6903F04003002B14BFCC
:10389C0001230023DBB2C7F8D4307B685B6C03F0E8
:1038AC000803002B03D1D7F8D430002B4FD0786805
:1038BC0000F00FFC7B681B685B6903F04003002B76
:1038CC0041D07B681B681433C7F89C30D7F89C3008
:1038DC0053E8003FC7F89830D7F8983023F04003EE
:1038EC00C7F8D0307B681B681433D7F8D020C7F8E2
:1038FC00A820C7F8A430D7F8A410D7F8A82041E81E
:10390C000023C7F8A030D7F8A030002BD9D17B68A2
:10391C00DB6B002B13D07B68DB6B7E4A5A637B68B6
:10392C00DB6B1846FEF732FA0346002B16D07B6889
:10393C00DB6B5B6B7A68D26B104698470EE078684D
:10394C0000F0A5F90AE0786800F0A1F906E07868C3
:10395C0000F09DF97B6800225A6475E100BF73E1A9
:10396C007B681B6B012B40F04F81D7F8E43003F0E0
:10397C001003002B00F04881D7F8E03003F010035F
:10398C00002B00F041810023BB607B681B681B6827
:10399C00BB607B681B685B68BB60BB687B681B6833
:1039AC005B6903F04003002B00F0B6807B68DB6B97
:1039BC001B685B68A7F8BE30B7F8BE30002B00F070
:1039CC0045817B689B8DB7F8BE209A4280F03E8182
:1039DC007B68B7F8BE20DA857B68DB6B9B69202B94
:1039EC0000F088807B681B680C33C7F88830D7F8E8
:1039FC00883053E8003FC7F88430D7F8843023F47C
:103A0C008073C7F8B8307B681B680C33D7F8B820C4
:103A1C00C7F89420C7F89030D7F89010D7F89420B6
:103A2C0041E80023C7F88C30D7F88C30002BD9D163
:103A3C007B681B6814337B677B6F53E8003F3B67E5
:103A4C003B6F23F00103C7F8B4307B681B68143359
:103A5C00D7F8B420C7F88020FB67F96FD7F880201F
:103A6C0041E80023BB67BB6F002BE1D17B681B686F
:103A7C0014333B663B6E53E8003FFB65FB6D23F054
:103A8C004003C7F8B0307B681B681433D7F8B020FC
:103A9C00FA66BB66B96EFA6E41E800237B667B6EF4
:103AAC00002BE3D17B68202283F842207B68002224
:103ABC001A637B681B680C33FB64FB6C53E8003F98
:103ACC00BB64BB6C23F01003C7F8AC307B681B687D
:103ADC000C33D7F8AC20BA657B65796DBA6D41E8CB
:103AEC0000233B653B6D002BE3D17B68DB6B1846F9
:103AFC00FEF710F97B6802225A637B689A8D7B680B
:103B0C00DB8D9BB2D31A9BB219467868FCF73CFC50
:103B1C009CE000BFA34100087B689A8D7B68DB8D1D
:103B2C009BB2D31AA7F8CE307B68DB8D9BB2002BEF
:103B3C0000F08E80B7F8CE30002B00F089807B68C7
:103B4C001B680C33BB63BB6B53E8003F7B637B6B25
:103B5C0023F49073C7F8C8307B681B680C33D7F814
:103B6C00C8207A643B64396C7A6C41E80023FB63AF
:103B7C00FB6B002BE3D17B681B6814337B627B6A85
:103B8C0053E8003F3B623B6A23F00103C7F8C430A3
:103B9C007B681B681433D7F8C4203A63FB62F96A5C
:103BAC003A6B41E80023BB62BB6A002BE3D17B6814
:103BBC00202283F842207B6800221A637B681B68F2
:103BCC000C333B613B6953E8003FFB60FB6823F01F
:103BDC001003C7F8C0307B681B680C33D7F8C020C3
:103BEC00FA61BB61B969FA6941E800237B617B69C1
:103BFC00002BE3D17B6802225A63B7F8CE3019460A
:103C0C007868FCF7C1FB23E0D7F8E43003F08003BD
:103C1C00002B09D0D7F8E03003F08003002B03D041
:103C2C00786800F0CCFA14E0D7F8E43003F04003E5
:103C3C00002B0ED0D7F8E03003F04003002B08D057
:103C4C00786800F00BFB04E000BF02E000BF00E06E
:103C5C0000BFE837BD4680BD80B483B000AF78604C
:103C6C0000BF0C37BD4680BC704780B483B000AF3A
:103C7C00786000BF0C37BD4680BC704780B483B001
:103C8C0000AF786000BF0C37BD4680BC704780B475
:103C9C0083B000AF786000BF0C37BD4680BC704766
:103CAC0080B59CB000AF78607B685B6AFB667B6814
:103CBC001B681B6803F02003002B72D1FB6E0022E3
:103CCC00DA85FB6E1B680C33FB64FB6C53E8003F1E
:103CDC00BB64BB6C23F48073BB66FB6E1B680C333C
:103CEC00BA6EBA657B65796DBA6D41E800233B65A8
:103CFC003B6D002BE5D1FB6E1B681433BB63BB6BB8
:103D0C0053E8003F7B637B6B23F001037B66FB6E08
:103D1C001B6814337A6E7A643B64396C7A6C41E8B4
:103D2C000023FB63FB6B002BE5D1FB6E1B6814338C
:103D3C007B627B6A53E8003F3B623B6A23F04003A3
:103D4C003B66FB6E1B6814333A6E3A63FB62F96A8E
:103D5C003A6B41E80023BB62BB6A002BE5D1FB6EDA
:103D6C00202283F84220FB6E1B6B012B19D1FB6EBA
:103D7C001B680C333B613B6953E8003FFB60FB68FD
:103D8C0023F01003FB65FB6E1B680C33FA6DFA61B4
:103D9C00BB61B969FA6941E800237B617B69002B3F
:103DAC00E5D1FB6E00225A63FB6E1B6B012B06D117
:103DBC00FB6E9B8D1946F86EFCF7E6FA02E0F86E86
:103DCC00FFF753FF00BF7037BD4680BD80B584B090
:103DDC0000AF78607B685B6AFB60FB6801225A630A
:103DEC00FB681B6B012B08D1FB689B8D5B089BB29E
:103DFC001946F868FCF7C8FA02E0F868FFF73EFFCE
:103E0C0000BF1037BD4680BD80B584B000AF786070
:103E1C000023FB607B685B6ABB60BB681B685B69EB
:103E2C0003F08003002B14BF01230023DBB2FB60E3
:103E3C00BB6893F84130DBB2212B08D1FB68002B17
:103E4C0005D0BB680022DA84B86800F01BF9BB68A7
:103E5C001B685B6903F04003002B14BF0123002394
:103E6C00DBB2FB60BB6893F84230DBB2222B08D18B
:103E7C00FB68002B05D0BB680022DA85B86800F01F
:103E8C0028F9BB685B6C43F01002BB685A64B868D5
:103E9C00FFF7FDFE00BF1037BD4680BD80B586B074
:103EAC0000AFF860B9603B601346FB713BE03B6AC6
:103EBC00B3F1FF3F37D0FCF7ABFF02463B68D31A98
:103ECC003A6A9A4202D33B6A002B01D103233AE0AF
:103EDC00FB681B68DB6803F00403002B23D0BB6872
:103EEC00802B20D0BB68402B1DD0FB681B681B6847
:103EFC0003F00803082B16D100237B61FB681B68B9
:103F0C001B687B61FB681B685B687B617B69F8687D
:103F1C0000F0DFF8FB6808225A64FB68002283F883
:103F2C00402001230FE0FB681B681A68BB68134034
:103F3C00BA689A420CBF01230023DBB21A46FB7904
:103F4C009A42B4D0002318461837BD4680BD0000F5
:103F5C0080B598B000AFF860B9601346FB80BA68C2
:103F6C00FB689A62FB68FA889A85FB6800225A649F
:103F7C00FB68222283F84220FB68DB6B3E4A9A6284
:103F8C00FB68DB6B3D4ADA62FB68DB6B3C4A1A630D
:103F9C00FB68DB6B00225A6307F10803FB65FB68C7
:103FAC00D86BFB681B6804331946FB6D1A68FB88D9
:103FBC00FDF750FE00233B61FB681B681B683B61EF
:103FCC00FB681B685B683B613B69FB681B69002BEA
:103FDC0019D0FB681B680C333B643B6C53E8003F07
:103FEC00FB63FB6B43F48073BB65FB681B680C3392
:103FFC00BA6DFA64BB64B96CFA6C41E800237B645B
:10400C007B6C002BE5D1FB681B681433FB62FB6AED
:10401C0053E8003FBB62BB6A43F001037B65FB685E
:10402C001B6814337A6DBA637B63796BBA6B41E8A6
:10403C0000233B633B6B002BE5D1FB681B681433FF
:10404C00BB61BB6953E8003F7B617B6943F0400374
:10405C003B65FB681B6814333A6D7A623B62396AC4
:10406C007A6A41E80023FB61FB69002BE5D1002350
:10407C0018466037BD4680BDAD3C0008D93D0008F0
:10408C00153E000880B489B000AF78607B681B686F
:10409C000C33FB60FB6853E8003FBB60BB6823F04C
:1040AC00C003FB617B681B680C33FA69BA617B61E6
:1040BC007969BA6941E800233B613B69002BE5D182
:1040CC007B68202283F8412000BF2437BD4680BC8A
:1040DC00704780B495B000AF78607B681B680C3378
:1040EC007B637B6B53E8003F3B633B6B23F4907328
:1040FC00FB647B681B680C33FA6C3A64FB63F96BEA
:10410C003A6C41E80023BB63BB6B002BE5D17B68A9
:10411C001B6814333B623B6A53E8003FFB61FB694D
:10412C0023F00103BB647B681B681433BA6CFA621E
:10413C00BB62B96AFA6A41E800237B627B6A002B96
:10414C00E5D17B681B6B012B19D17B681B680C3389
:10415C00FB60FB6853E8003FBB60BB6823F01003B7
:10416C007B647B681B680C337A6CBA617B61796900
:10417C00BA6941E800233B613B69002BE5D17B68C0
:10418C00202283F842207B6800221A6300BF543738
:10419C00BD4680BC704780B584B000AF78607B684A
:1041AC005B6AFB60FB680022DA85FB680022DA841C
:1041BC00F868FFF76CFD00BF1037BD4680BD80B4BA
:1041CC0085B000AF78607B6893F84130DBB2212B6F
:1041DC003ED17B689B68B3F5805F14D17B681B690B
:1041EC00002B10D17B681B6AFB60FB681B881A468E
:1041FC007B681B68C2F308025A607B681B6A9A1CB6
:10420C007B681A6208E07B681B6A591C7A68116229
:10421C001A787B681B685A607B68DB8C9BB2013B0D
:10422C009BB27A681946D184002B0FD17B681B682E
:10423C00DA687B681B6822F08002DA607B681B6896
:10424C00DA687B681B6842F04002DA60002300E009
:10425C00022318461437BD4680BC704780B582B027
:10426C0000AF78607B681B68DA687B681B6822F09B
:10427C004002DA607B68202283F841207868FFF7DF
:10428C00EBFC002318460837BD4680BD80B58CB0CA
:10429C0000AF78607B6893F84230DBB2222B40F0A1
:1042AC00AE807B689B68B3F5805F17D17B681B6918
:1042BC00002B13D10023FB627B689B6ABB627B687B
:1042CC001B685B689BB2C3F308039AB2BB6A1A8083
:1042DC007B689B6A9A1C7B689A6226E07B689B6A67
:1042EC00FB620023BB627B689B68B3F5805F07D0E1
:1042FC007B689B68002B0AD17B681B69002B06D15D
:10430C007B681B685B68DAB2FB6A1A7008E07B6832
:10431C001B685B68DBB203F07F03DAB2FB6A1A70CE
:10432C007B689B6A5A1C7B689A627B68DB8D9BB2AC
:10433C00013B9BB27A681946D185002B5DD17B6815
:10434C001B68DA687B681B6822F02002DA607B68E5
:10435C001B68DA687B681B6822F48072DA607B6801
:10436C001B685A697B681B6822F001025A617B68E2
:10437C00202283F842207B6800225A637B681B6BE7
:10438C00012B35D17B6800221A637B681B680C33C8
:10439C007B617B6953E8003F3B613B6923F0100371
:1043AC007B627B681B680C337A6A3A62FB61F96941
:1043BC003A6A41E80023BB61BB69002BE5D17B68FD
:1043CC001B681B6803F01003102B0AD10023FB6041
:1043DC007B681B681B68FB607B681B685B68FB6009
:1043EC00FB687B689B8D19467868FBF7CDFF02E074
:1043FC007868FFF73AFC002302E0002300E0022378
:10440C0018463037BD4680BD80B584B000AF7860AB
:10441C007B681B681B6923F440517B68DA687B68F6
:10442C001B680A431A617B689A687B681B691A438C
:10443C007B685B691343BB607B681B68DB6823F498
:10444C00B05323F00C037A681268B9680B43D3603D
:10445C007B681B685B6923F440717B689A697B6895
:10446C001B680A435A617B681B682C4A934203D130
:10447C00FEF708FCF86002E0FEF7F0FBF860FA6863
:10448C0013469B0013449A001A447B685B689B009C
:10449C00B2FBF3F3224AA2FB03235B091901FA686E
:1044AC0013469B0013449A001A447B685B689B007C
:1044BC00B2FBF3F21A4BA3FB02035B09642000FB73
:1044CC0003F3D31A1B013233154AA2FB03235B09F6
:1044DC0003F0F0031944FA6813469B0013449A0046
:1044EC001A447B685B689B00B2FBF3F20C4BA3FB9A
:1044FC0002035B09642000FB03F3D31A1B01323364
:10450C00074AA2FB03235B0903F00F027B681B68BD
:10451C000A449A6000BF1037BD4680BD0038014088
:10452C001F85EB5103460244934200D1704703F8B8
:10453C00011BF9E770B500260C4D0D4C641BA41043
:10454C00A64209D100F01AF800260A4D0A4C641B49
:10455C00A410A64205D170BD55F8043B984701360E
:10456C00EEE755F8043B98470136F2E7CC450008D6
:10457C00CC450008CC450008D0450008F8B500BF74
:10458C00F8BC08BC9E467047F8B500BFF8BC08BC28
:04459C009E46704780
:1045A00000000000000000000102030406070809E3
:1045B00000000000010203040203040506070809C5
:0C45C0000A0B0C0D0E0F10100102000081
:0445CC0031010008B1
:0445D0000D010008D1
:0C45D40000127A0010000000010000003E
:0400000508000D21C1
:00000001FF
